:02000002D0002C
:1040000000400D00085D0D00000006000C000501D9
:084010000401E80500000000B6
:0440180090580D00AF
:10401C0009480A49884208B505D0094A824202D0AB
:10402C00121A01F0CFFB0748074A0021121A01F0BF
:10403C00D4FB014808BD00BFD4E20320C45B0D00D3
:10404C00F0E30320F0E30320F0E7032070B500F069
:10405C0039FC074C074BE41AA40800251E46A54260
:10406C0004D056F8253098470135F8E770BD00BFED
:10407C00B45B0D007C5B0D0000F015B808B500F0CA
:10408C001BF8BDE8084000F0DFBB00F0BBB900F046
:10409C00C1B900F0BFB90078B0FA80F040097047A0
:1040AC0001230370704708B501F052F84FF4E13169
:1040BC00BDE8084001F048B810B588B001F048F8E8
:1040CC000D23174A00930021164B00F022FB1549D3
:1040DC0004A800F076FA144B04991B788DF8003084
:1040EC0000223C2302A800F05BFD039C7CB16368BA
:1040FC00013B63605BB9236820469B689847A368C3
:10410C00013BA3601BB923682046DB68984704A8D1
:10411C0000F010FA41F2883000F048FB08B010BDF6
:10412C00A4580D00D4E20320F4E30320024B002238
:10413C001A7000F013B800BFF4E3032008B5024B6B
:10414C001B689B68019308BD6802030008B5024B0D
:10415C001B68DB68019308BD6802030008B5024BBD
:10416C001B681B68019308BD2C02030008B5024BA9
:10417C001B685B68019308BD1802030008B5024B6D
:10418C001B685B69019308BD1802030008B5024B5C
:10419C001B689B68019308BD4802030008B5024BDD
:1041AC001B681B69019308BD4802030008B5024B4C
:1041BC001B685B69019308BD4802030008B5024BFC
:1041CC001B685B6C019308BD4802030008B5024BE9
:1041DC001B689B6C019308BD4802030008B5024B99
:1041EC001B685B69019308BD6402030008B5024BB0
:1041FC001B681B68019308BD3C02030008B5024B09
:10420C001B68DB68019308BD3C02030008B5024B38
:10421C001B681B69019308BD3C02030008B5024BE7
:10422C001B685B69019308BD3C02030008B5024B97
:10423C001B689B69019308BD3C02030008B5024B47
:10424C001B68DB69019308BD3C02030008B5024BF7
:10425C001B689B6A019308BD3C02030008B5024B26
:10426C001B68DB6A019308BD3C02030008B5024BD6
:10427C001B681B68019308BD4C02030008B5024B78
:10428C001B681B69019308BD4C02030008B5024B67
:10429C001B685B69019308BD4C02030008B5024B17
:1042AC001B689B69019308BD4C02030008B5024BC7
:1042BC001B68DB69019308BD4C02030008B5024B77
:1042CC001B681B6A019308BD4C02030008B5024B26
:1042DC001B685B68019308BD2002030008B5024B04
:1042EC001B685B69019308BD2002030008B5024BF3
:1042FC001B68DB6C019308BD2002030008B5024B60
:10430C001B685B6D019308BD2002030008B5034BCD
:10431C001B68D3F88830019308BD0000200203000D
:10432C0008B5034B1B68D3F89430019308BD00000B
:10433C002002030008B5024B1B685B68019308BDA3
:10434C004002030008B5024B1B689B68019308BD33
:10435C004002030008B5024B1B68DB68019308BDE3
:10436C004002030008B5024B1B681B69019308BD92
:10437C004002030008B5024B1B685B69019308BD42
:10438C004002030008B5024B1B689B69019308BDF2
:10439C004002030008B5024B1B68DB69019308BDA2
:1043AC004002030008B5024B1B681B6A019308BD51
:1043BC004002030008B5024B1B681B6B019308BD40
:1043CC004002030008B5024B1B685B6B019308BDF0
:1043DC004002030008B5024B1B685B69019308BDE2
:1043EC004402030008B5024B1B681B6A019308BD0D
:1043FC004402030008B5024B1B68DB6B019308BD3C
:10440C004402030008B5024B1B681B68019308BDEE
:10441C001C02030008B5024B1B685B68019308BDC6
:10442C001C02030008B5024B1B689B68019308BD76
:10443C001C02030008B5024B1B685B6A019308BDA4
:10444C001C02030008B5024B1B68DB6A019308BD14
:10445C001C02030008B5024B1B681B6B019308BDC3
:10446C001C020300002211464068FFF79BBF00228C
:10447C0011464068FFF7A6BF00224068FFF79ABFBD
:10448C00002281F001014068FFF784BF00231A4627
:10449C0019464068FFF776BF00231A461946406854
:1044AC00FFF768BF002211464068FFF75BBF002290
:1044BC0011464068FFF746BF002202214068FFF713
:1044CC0049BF00231A464068FFF734BF024B032252
:1044DC005A60024A1A607047F8E30320B4580D0082
:1044EC0010B50446006818B1FFF794FF0023236051
:1044FC0010BD10B50446FFF7F3FF204610BD0000B9
:10450C0010B5094C00204FF6FF732060A080A071FD
:10451C0020816381FFF7DAFE2046044A0449BDE896
:10452C00104000F0EFBF00BF00E40320F0E30320D5
:10453C00FF440D0010B504460068FFF76BFF2046E2
:10454C0010BD10B50446006808B1FFF763FF0023E7
:10455C002360A360636010BD38B504460D46006847
:10456C000131FFF75FFF10B184E82100012038BD55
:10457C0010B50368044613B143688B4207D220463A
:10458C00FFF7EAFF20B1A3680BB922681370012072
:10459C0010BD70B50E46114604461546FFF7E8FFF0
:1045AC0018B92046FFF7CDFF09E02A463146A56031
:1045BC00206801F007F92268A3680021D154204635
:1045CC0070BD38B5002304460360436083600373F9
:1045DC000D4639B1084601F04CF9294602462046F1
:1045EC00FFF7D7FF204638BD10B50446006808B168
:1045FC00FFF7ECFD204610BD10B5036804469B6820
:10460C009847A368013BA3602BB923682046DB685D
:10461C00BDE81040184710BD0B68036013B15A6811
:10462C0001325A60704710B50446006828B14368DF
:10463C00013B43600BB9FFF7DFFF204610BD0000C4
:10464C0010B5064C002320462360FFF7B7FD20462B
:10465C00034A0449BDE8104000F054BF0CE40320A9
:10466C00F0E30320F5450D00F8B506460D468F180E
:10467C000024BD420CD0336815F8011B9B683046F2
:10468C009847002801DB0444F3E7002C08BF0446DC
:10469C002046F8BD70B505460C46084649B101F0F8
:1046AC00E8F82B68024621462846DB68BDE87040D6
:1046BC00184770BD03689B68184738B50D2105462F
:1046CC00FFF7F8FF0A2104462846FFF7F3FF2044C2
:1046DC0038BD30B58BB00B4600218DF82410012A63
:1046EC0098BF0A220DF12304B3FBF2F505FB12333C
:1046FC0003F0FF03092B94BF30333733DBB2214671
:10470C0004F801392B46002DEED1FFF7C3FF0BB097
:10471C0030BD0CB42DE9F04387B000AF07F138047D
:10472C00054654F8049B3C600E4623464A46142129
:10473C00381DFFF77FFE132805D8391D2846FFF7D3
:10474C00A9FF044613E000F1080323F00703E84631
:10475C00ADEB030D411C23464A4668463C60FFF70F
:10476C0069FE69462846FFF795FF0446C5461EB10B
:10477C002846FFF7A2FF044420461C37BD46BDE87F
:10478C00F04302B070470000014B024A1A607047B8
:10479C0010E4032053590D00024B1A68024B1A60A7
:1047AC00704700BF88E3032014E403200021FFF7C7
:1047BC0095BD10B58368044613B103220146984792
:1047CC00204610BD10B50446FFF7F3FF204610BD80
:1047DC0013B50B46044603C88DE8030093E80300A9
:1047EC0084E803009DE8030083E8030002B010BDD9
:1047FC000348044A04490023836000F083BE00BFD1
:10480C0018E40320F0E30320D1470D0008B50C4B4E
:10481C0033B100F017FC03681B699847002809DCCA
:10482C00084B63B100F094FC03681B69984700289F
:10483C0003DC08BDAFF30080F2E7AFF3008008BDE6
:10484C00000000000000000008B5FFF7DFFFFFF7D5
:10485C0095FC014B186008BD4CE703200248034A45
:10486C000349121A00F0AEBF00F4032004F4032035
:10487C00C05B0D0007B5002300931A466FF077015B
:10488C00FFF74EFD03B05DF804FB000007B543884D
:10489C000A2B08D0502B09D1094B1B683BB103B034
:1048AC005DF804EB1847FFF7E5FF06E000230093E3
:1048BC001A466FF07701FFF733FD03B05DF804FB88
:1048CC0028E4032038B5104C104D2368AB42104B34
:1048DC000CBF012200221A7002D0FFF7BFFF256027
:1048EC00FFF744FC044600F081FF0A4B13B120464D
:1048FC00AFF3008000210748FFF77CFD002106483C
:10490C00BDE83840FFF702BD00F403201E1C279AB7
:10491C002CE403200000000099480D007047002093
:10492C00704710B51021044600F0F1FD204610BD73
:10493C0008B508B1FFF7F5FF08BD0022026010B5FD
:10494C004FF69C728280B1F9044084808A800268A0
:10495C000C6804600A6010BD10B504460068FFF7CF
:10496C0059FD204610BD38B5C468F4B12378022B2C
:10497C0003D104F10C00FFF7EFFF656835B1284651
:10498C00FFF717FF1021284600F0C1FDA56835B1CF
:10499C002846FFF70EFF1021284600F0B8FD2046F0
:1049AC001421BDE8384000F0B2BD38BD13B5044643
:1049BC0091E8050000234B600B602060626001A849
:1049CC0001930093FFF72FFE204602B010BDF7B500
:1049DC000C4602AD54F8043B45F8083D06460F461C
:1049EC0001A82146FFF718FE29463046FFF7DEFFE7
:1049FC0001A8FFF718FE2046FFF715FE38460821E0
:104A0C0000F085FD304603B0F0BD000038B5002342
:104A1C000446036010200D46FFF737FB28B1012335
:104A2C0043608360024B0360C5602060204638BD44
:104A3C00F4590D00826810B50AB900F06AFDC3681C
:104A4C00BDE81040184708B5006800F11001FFF7E9
:104A5C00F1FF08BD826810B50AB900F05AFDC368B1
:104A6C00BDE81040184708B5006800F11001FFF7C9
:104A7C00F1FF08BD38B5002383608B6804460D46F2
:104A8C002BB102229847EB68E360AB68A360204629
:104A9C0038BD0000F0B589B004686846FFF74DFFDB
:104AAC0000238DF808304FF00202D4E84F3F002B62
:104ABC0003D1C4E8412F0029F7D102D08DF808307A
:104ACC0063E014F10C0503D069462846FFF735FF67
:104ADC00BFF35F8F01236370002004F10803BFF361
:104AEC005F8F53E8006F43E80002002AF9D1BFF34F
:104AFC005F8F002E49D0FFF7F9FB20B129463046D5
:104B0C00FFF798FF3AE0314602A8FFF7B3FFE068E1
:104B1C00B4F9105008B100F091FE06901020ADF8D9
:104B2C001C50FFF7B2FA0546E8B100278760182041
:104B3C00FFF7ABFA044688B10146876002A8FFF77D
:104B4C0047FE049BA268A360059B049206A9E26839
:104B5C00E36004F110000592FFF7EFFE0D4BEB60E4
:104B6C000D4B2C60AB6006A8FFF7F6FE02A8FFF712
:104B7C0020FE002229460948FFF7C0FB3046FFF70C
:104B8C0018FE1021304600F0C2FC6846FFF7E4FE28
:104B9C0009B0F0BD534A0D00C94C0D00A9510D00D0
:104BAC002DE9F04F8BB006460F46904699469DF87E
:104BBC0050A0FFF70FFC07AD834630BB4FF62E73AA
:104BCC00059005A92846ADF81830FFF7B6FE14205D
:104BDC00FFF75BFA044658B10223037001234370BC
:104BEC00C0F804B0C0F808B029460C30FFF7A5FE99
:104BFC003046214640F8044BFFF708FF2846FFF7E4
:104C0C00ABFE05A8FFF7A8FE52E000240C231420ED
:104C1C006C60AC600793FFF738FA014618B104706A
:104C2C0044704460846004A80391FFF7EFFE224BAC
:104C3C0008930820FFF729FA044628B1039B40F893
:104C4C00043B04A9FFF7E8FC00955FFA8AF34A4697
:104C5C00414638460994FFF7C5FB20B9039B5B78A6
:104C6C0003F0FF0283B1039B059304A906A8FFF789
:104C7C00D3FC05A93046FFF799FE06A8FFF7D3FC35
:104C8C0004A8FFF7D0FC13E04FF69C7305A903A80A
:104C9C000592ADF81830FFF7FDFE05A8FFF75CFE96
:104CAC0005A80999FFF793FE06A8FFF7BCFCDAE705
:104CBC0030460BB0BDE8F08F394E0D00022AF8B526
:104CCC00044606D0032A17D0012A22D10B680360B0
:104CDC001FE018200E68FFF7D8F9054650B1314691
:104CEC00FFF7C8FE3069B6F9147008B100F0A6FDE4
:104CFC002861AF8225600CE0046854B104F1100007
:104D0C00FFF72AFE2046FFF754FD1821204600F03D
:104D1C00FEFB0020F8BD38B5002383608B68044689
:104D2C000D462BB102229847EB68E360AB68A36099
:104D3C00204638BD022A70B5044606D0032A11D08D
:104D4C00012A18D10B68036015E014200E68FFF7D8
:104D5C009CF9054620B13146FFF7DDFF337C2B74FF
:104D6C00256008E0046834B12046FFF722FD1421C9
:104D7C00204600F0CCFB002070BD0000F0B50023F5
:104D8C0087B00C46BFF35F8F50E8006F40E80032ED
:104D9C00002AF9D1BFF35F8F002E3FD01846FFF7E2
:104DAC00A5FA074620B121463046FFF753FE2EE008
:104DBC00314601A8FFF7AFFF23788DF8143010208F
:104DCC00FFF763F90546D0B187601420FFF75DF952
:104DDC00044678B18760014601A8FFF7F9FC039BF4
:104DEC00A268A360049B0392E268E3609DF8143010
:104DFC00049223740A4BEB600A4B2C60AB6001A845
:104E0C00FFF7D7FC002229460748FFF777FA304610
:104E1C00FFF7CFFC1021304600F079FB07B0F0BD56
:104E2C00734A0D00414D0D00A9510D0030B585B0F0
:104E3C0004460D4668461146FFF7C9FD7CB124B205
:104E4C0028460DB100F0FAFC029002A96846ADF8B4
:104E5C000C40FFF71FFE02A8FFF77EFD1DE0009837
:104E6C008DF808404FF00102D0E84F3FA34203D128
:104E7C00C0E8412F0029F7D102D08DF808300CE0A2
:104E8C0010F10C014FF0010318BF0373BFF35F8FD8
:104E9C00043000F8033CFFF771FF01A8FFF7C3FBD8
:104EAC0005B030BD704710B51821044600F02FFB3B
:104EBC00204610BDF0B5037D062B8DB00E4600F1DB
:104ECC0004074FF0000402D000F1080518E00CAD07
:104EDC00394605F8304D2F232A460A20FFF77EF974
:104EEC00284600F0C6FC33680246DB68294630468B
:104EFC0098470FE024B12E213046FFF7DBFB04442A
:104F0C0015F8011D0A223046FFF7E3FBBD420444AD
:104F1C00F0D120460DB0F0BD10B5054B0446112262
:104F2C0040F8043B002100F058FC204610BD00BFA7
:104F3C00105A0D000346074A10B543F8042B01F133
:104F4C00100251F8044B43F8044B9142F9D10A7802
:104F5C001A7010BD105A0D0010B59DF8084044EAA7
:104F6C00032343EA024242EA0161042341600375D0
:104F7C0010BD37B50D788B784A78C97800912946E1
:104F8C00FFF7EAFF03B030BD41747047704708B5B6
:104F9C000021007CFFF782F930EA200028BF4FF097
:104FAC00FF3008BD08B50121007CFFF777F930EA26
:104FBC00200028BF4FF0FF3008BD08B5007CFFF77C
:104FCC0065F920EAE07008BD08B5007CFFF756F9DA
:104FDC0020EAE07008BD007CFFF770B910B5142111
:104FEC00044600F094FA204610BD38B50446007C07
:104FFC000D46FFF74BF9002801DC607C28B12946EF
:10500C00207CFFF753F920EAE07038BD10B5044658
:10501C00002363604FF47A73A360054B2360012374
:10502C000846217463741146FFF720F9204610BD21
:10503C00245A0D0010B514220446002100F0CDFBBB
:10504C00204610BD30B50E4D87B001A8FFF7F2FF1A
:10505C00296811F0010410D12846FFF71CF860B143
:10506C0001AA21460748FFF7D1FF2846FFF718F899
:10507C00054A0649034800F045FA024807B030BD1E
:10508C0030E4032034E40320F0E30320994F0D00B7
:10509C0070474174704708B5007CFFF7D7F820EAD9
:1050AC00E07008BD08B5007CFFF7B0F820EAE070AE
:1050BC0008BD08B5007CFFF7B9F830EA200028BF1E
:1050CC004FF0FF3008BD08B5007CFFF7A7F830EAB9
:1050DC00200028BF4FF0FF3008BD007CFFF7AEB8B2
:1050EC0010B51421044600F012FA204610BD70B51C
:1050FC00457C04460E4625B9007CFFF7A7F800282E
:10510C0005DD3146207CBDE87040FFF777B82846B6
:10511C0070BD000010B504460846114600226260BE
:10512C004FF47A72A260054A2260012220746274E4
:10513C001A46FFF75BF8204610BD00BF545A0D000D
:10514C000023007CFFF78AB80022FFF7F9BF0000AC
:10515C0038B50C4D296811F0010411D12846FEF721
:10516C009AFF68B1084A094B09482146FFF7D2FF5C
:10517C002846FEF795FF074A0749054800F0C2F993
:10518C00034838BDE0E40320E4E403205CE403209E
:10519C0048E40320F0E303209D500D0010B5836814
:1051AC0004460BB900F0B5F9C3689847A3681BB166
:1051BC00032221462046984720461021BDE8104086
:1051CC0000F0A5B9002211464068FFF7EBB80022A9
:1051DC0011464068FFF7F6B800224068FFF7EAB8BE
:1051EC00002281F001014068FFF7D4B800231A4671
:1051FC0001214068FFF7C6B800231A4619464068DB
:10520C00FFF7B8B8002211464068FFF7ABB8002290
:10521C0011464068FFF796B8002202214068FFF75C
:10522C0099B800231A464068FFF784B838B505468C
:10523C0088B104684CB1A3681BB1032221462046F7
:10524C0098471021204600F062F928461421BDE849
:10525C00384000F05CB938BD10B103685B68184782
:10526C00704710B503680446BBB15868FEF78EFF53
:10527C0078B923685A7C12B95868FEF78FFF2368F7
:10528C005868FEF793FF20680023236028B1FFF7CE
:10529C00CDFF206808B1FFF7C9FF204610BD38B517
:1052AC000446D0F8C40108B1FEF7F3FED4F8C001EF
:1052BC0008B1FEF78BFFD4F8BC5135B12846FFF787
:1052CC00D0FF0421284600F022F9206808B1FFF72E
:1052DC00C3FF204638BD000010B5044B044640F80F
:1052EC00083BFFF7DCFF204610BD00BF845A0D00C1
:1052FC0038B50E4C0E4B23600025022304F5E470E8
:10530C006360A560C4F8C451C4F8C851FEF756FFD9
:10531C00084BC4F8CC5184F8D05123602046064A7F
:10532C000649BDE8384000F0EDB800BF68E5032041
:10533C00EC5A0D00845A0D00F0E30320E5520D00E9
:10534C00002211464068FFF70DB800221146406854
:10535C00FFF728B8002211464068FFF733B8002247
:10536C004068FFF727B8002281F001014068FFF781
:10537C0011B800231A4619464068FFF703B80023FA
:10538C001A4619464068FEF7F5BF002211464068E0
:10539C00FEF7D8BF002202214068FEF7DBBF0023D6
:1053AC001A464068FEF7C6BF024B04225A60024AF6
:1053BC001A6070473CE70320B85A0D0000231A46C8
:1053CC004068FEF7B7BF002202214068FEF7C2BF5B
:1053DC00002211464068FEF7B5BF00221146406816
:1053EC00FEF7C0BF00231A4619464068FEF7C2BF3D
:1053FC0000231A4619464068FEF7C4BF002281F00C
:10540C0001014068FEF7C6BF00224068FEF7D2BF1C
:10541C00002211464068FEF7D5BF002211464068B5
:10542C00FEF7C0BF2DE9F043002495B016460D469B
:10543C000746FFF771FD214620220CA8009400F0CE
:10544C00CCF940230C9321466B460CAA3046FEF750
:10545C007DFE0446002844D1024601216868FEF70F
:10546C0081FF0221804622466868FEF77BFF009E82
:10547C0081462146002E34D0002932D17368022B8C
:10548C0002D00A2B09D02AE0B8F1000F27D071699D
:10549C0038460431FFF76DFD20E0B9F1000F1ED046
:1054AC007469112201A800F098F906238DF81430C4
:1054BC0001AD04F108031834186859682A4603C270
:1054CC000833A3421546F7D101A906A807ADFFF78B
:1054DC0031FD0FCD3C1D0FC42B6823700121F669E3
:1054EC00C8E70098FEF72AFE384615B0BDE8F083F1
:1054FC00024B034A1A6000225A60704744E70320AB
:10550C00EC5A0D000B460146184600F04DB9FEF75B
:10551C00BEBD08B5FEF796FF184B1A68D1075CBFE5
:10552C0001221A60164B1A68D2075CBF01221A605E
:10553C00144B1A68D0075CBF01221A60124B1A6810
:10554C00D1075CBF01221A60104B1A68D2075CBFEE
:10555C0001221A600E4B1A68D0075CBF01221A6038
:10556C000C4B1A68D1075CBF01221A600A4B1A68EF
:10557C00D2075CBF01221A60704700BF6CE70320A2
:10558C0068E7032064E7032060E703205CE703205F
:10559C0058E7032054E7032050E70320244B1A68F4
:1055AC00D0075CBF01221A60224B1A68D1075CBF7E
:1055BC0001221A60204B1A68D2075CBF01221A60C4
:1055CC001E4B1A68D0075CBF01221A601C4B1A686C
:1055DC00D1075CBF01221A601A4B1A68D2075CBF54
:1055EC0001221A60184B1A68D0075CBF01221A609E
:1055FC00164B1A68D1075CBF01221A60144B1A684B
:10560C00D2075CBF01221A60124B1A68D0075CBF2C
:10561C0001221A60104B1A68D1075CBF01221A6074
:10562C000E4B1A68D2075CBF01221A60704700BF8C
:10563C009CE7032098E7032094E7032090E70320DE
:10564C008CE7032088E7032084E7032080E703200E
:10565C007CE7032078E7032074E7032070E703203E
:10566C00244B1A68D0075CBF01221A60224B1A68BF
:10567C00D1075CBF01221A60204B1A68D2075CBFAD
:10568C0001221A601E4B1A68D0075CBF01221A60F7
:10569C001C4B1A68D1075CBF01221A601A4B1A689E
:1056AC00D2075CBF01221A60184B1A68D0075CBF86
:1056BC0001221A60164B1A68D1075CBF01221A60CE
:1056CC00144B1A68D2075CBF01221A60124B1A687D
:1056DC00D0075CBF01221A60104B1A68D1075CBF5F
:1056EC0001221A600E4B1A68D2075CBF01221A60A5
:1056FC00704700BFCCE70320C8E70320C4E70320B2
:10570C00C0E70320BCE70320B8E70320B4E703207D
:10571C00B0E70320ACE70320A8E70320A4E70320AD
:10572C00A0E70320184B1A68D1075CBF01221A604E
:10573C00164B1A68D2075CBF01221A60144B1A6808
:10574C00D0075CBF01221A60124B1A68D1075CBFEC
:10575C0001221A60104B1A68D2075CBF01221A6032
:10576C000E4B1A68D0075CBF01221A600C4B1A68EA
:10577C00D1075CBF01221A600A4B1A68D2075CBFC2
:10578C0001221A60704700BFECE70320E8E7032012
:10579C00E4E70320E0E70320DCE70320D8E703205D
:1057AC00D4E70320D0E7032010B5054C13462CB1E9
:1057BC000A4601460220AFF3008010BD204610BD02
:1057CC000000000010B5431E0A44914204D011F8A9
:1057DC00014B03F8014FF8E710BD02440346934216
:1057EC0002D003F8011BFAE77047000038B5124BE2
:1057FC001C68A36B0546D3B91820FEF703FE43F2D1
:10580C000E33A06303804AF6CD33438041F2342338
:10581C0083804EF26D63C3804DF6EC6303810523E8
:10582C0043810B23838101220023C0E90423A36B52
:10583C0000221D615A6138BDECE30320024B014686
:10584C00186800F003B800BFECE3032070B50646FF
:10585C0008460C4600F00DF8451C29463046FEF76C
:10586C00F9FD064618B12A462146FFF7ABFF304634
:10587C0070BD034613F8012B002AFBD1181A01380E
:10588C00704700001D400D0059400D0085400D0073
:10589C0089400D0000000000257325630000000006
:1058AC000000000000000000CF440D00C5440D00B6
:1058BC00BB440D00B1440D00A5440D0099440D00EE
:1058CC008D440D0085440D007B440D0071440D008A
:1058DC0031540D00626175640053657269616C002E
:1058EC0053657269616C3100747970650070617216
:1058FC00616D00636D6400696400686E64007374AC
:10590C00726D0066696C74006C766C00616464483E
:10591C00616E646C65720072656D6F766548616E60
:10592C00646C657200656E756D48616E646C657251
:10593C0073004A534F4E53747265616D4C6F6748D8
:10594C00616E646C65720061707000253031307569
:10595C0020005D20002564002C200028293A20001E
:10596C00205B00636F6465203D2000256900646541
:10597C007461696C73203D20000D0A0066006C6E2A
:10598C0000666E00636F64650064657461696C0029
:10599C006E6F6E6500747261636500696E666F0090
:1059AC007761726E006572726F720070616E6963FE
:1059BC0000616C6C005A00252B3033643A25303270
:1059CC00750025592D256D2D25645425483A254DF6
:1059DC003A2553257A0061736374696D6500000084
:1059EC00000000000000000029490D002F490D00A7
:1059FC0073490D003D490D002B490D0000000000BE
:105A0C0000000000C14E0D00B14E0D00B34E0D0054
:105A1C000000000000000000994F0D00E94F0D0040
:105A2C00F74F0D0075460D00D54F0D009B4F0D0027
:105A3C00B14F0D00E34F0D00C74F0D00954F0D00FA
:105A4C0000000000000000009D500D00ED500D0006
:105A5C00FB500D0075460D00B1500D00D3500D00DC
:105A6C00BF500D00E7500D009F500D00A3500D00CE
:105A7C0000000000000000002F520D0025520D0008
:105A8C001B520D0011520D0005520D00F9510D0065
:105A9C00ED510D00E5510D00DB510D00D1510D0004
:105AAC0031540D000000000000000000AB530D004D
:105ABC00A1530D0097530D004D530D008B530D004A
:105ACC007F530D0073530D006B530D0061530D008C
:105ADC0057530D0031540D00000000000000000071
:105AEC00C9530D00D3530D00DD530D00E7530D00CA
:105AFC00F1530D00FD530D0009540D0015540D000C
:105B0C001D540D0027540D0031540D0000000000F1
:105B1C000000000000000000000000000000000079
:105B2C000000000000000000000000000000000069
:105B3C000000000000000000000000000000000059
:105B4C000000000000000000000000000000000049
:105B5C000000000000000000000000000000000039
:105B6C0000000000000000000000000043000000E6
:105B7C0039410D00D9440D000D450D004D460D0069
:105B8C0095470D00A5470D00FD470D00FD520D007A
:105B9C00B5530D00FD540D0025550D00A9550D00F4
:105BAC006D560D0031570D00000000000000000084
:045BBC0000000000E5
:045BC00000000000E1
:105BC40038453646443330342D423930442D393744
:105BD40032362D464133382D314539443336343647
:105BE400423731332C38453646443330342D323540
:105BF40042332D363035362D333036392D39423453
:105C04003143383139383142452C384536464433EE
:105C140030342D323542332D434542432D31423702
:105C2400452D3434344236394134413932432C38E9
:105C3400453646443330342D323542332D434542C4
:105C4400432D373045412D383233423931383034E1
:105C54004444412C312C312C30303A32353A3130F5
:105C64002C34362C322E33392C32302E39362C3219
:105C740000000000E2590D0000000000185B0D0058
:105C8400385B0D00585B0D000000000000000000B0
:105C94000000000000000000785B0D000000000020
:105CA40000000000000000000000000000000000F0
:105CB40000000000000000000000000000000000E0
:105CC40000000000000000000000000000000000D0
:0C5CD40000000000000000008CE3032032
:105CE000FFFFFFFF00000102030405060708090A81
:105CF0000B0C0D0E0F101112131415161718191A7C
:085D00001B1C1D1E1F202800C2
:045D08007856341283
:04000003D000401CCD
:00000001FF
