:02000002D0002C
:1040000000400D00E45C0D00000006000C000501FE
:084010000401E80500000000B6
:0440180030590D000E
:10401C0009480A49884208B505D0094A824202D0AB
:10402C00121A01F0E5FB0748074A0021121A01F0A9
:10403C00EAFB014808BD00BF88E30320545C0D0077
:10404C00F0E30320F0E30320F0E7032070B500F069
:10405C003BFC074C074BE41AA40800251E46A5425E
:10406C0004D056F8253098470135F8E770BD00BFED
:10407C004C5C0D00145C0D0000F015B808B500F098
:10408C001BF8BDE8084000F0E1BB00F0BDB900F042
:10409C00C3B900F0C1B90078B0FA80F0400970479C
:1040AC0001230370704708B501F054F84FF4E13167
:1040BC00BDE8084001F04AB810B55B2188B041203A
:1040CC0001F08DF8184C207001F044F80368217849
:1040DC009B68984721780A2204A800F0BBFA134B7E
:1040EC0004991B788DF8003000223C2302A800F0C4
:1040FC0059FD039C7CB16368013B63605BB9236829
:10410C0020469B689847A368013BA3601BB92368B2
:10411C002046DB68984704A800F044FA41F2883046
:10412C0000F046FB08B010BDF5E30320F4E30320D8
:10413C00024B00221A7000F013B800BFF4E3032006
:10414C0008B5024B1B689B68019308BD680203000D
:10415C0008B5024B1B68DB68019308BD68020300BD
:10416C0008B5024B1B681B68019308BD2C020300A9
:10417C0008B5024B1B685B68019308BD180203006D
:10418C0008B5024B1B685B69019308BD180203005C
:10419C0008B5024B1B689B68019308BD48020300DD
:1041AC0008B5024B1B681B69019308BD480203004C
:1041BC0008B5024B1B685B69019308BD48020300FC
:1041CC0008B5024B1B685B6C019308BD48020300E9
:1041DC0008B5024B1B689B6C019308BD4802030099
:1041EC0008B5024B1B685B69019308BD64020300B0
:1041FC0008B5024B1B681B68019308BD3C02030009
:10420C0008B5024B1B68DB68019308BD3C02030038
:10421C0008B5024B1B681B69019308BD3C020300E7
:10422C0008B5024B1B685B69019308BD3C02030097
:10423C0008B5024B1B689B69019308BD3C02030047
:10424C0008B5024B1B68DB69019308BD3C020300F7
:10425C0008B5024B1B689B6A019308BD3C02030026
:10426C0008B5024B1B68DB6A019308BD3C020300D6
:10427C0008B5024B1B681B68019308BD4C02030078
:10428C0008B5024B1B681B69019308BD4C02030067
:10429C0008B5024B1B685B69019308BD4C02030017
:1042AC0008B5024B1B689B69019308BD4C020300C7
:1042BC0008B5024B1B68DB69019308BD4C02030077
:1042CC0008B5024B1B681B6A019308BD4C02030026
:1042DC0008B5024B1B685B68019308BD2002030004
:1042EC0008B5024B1B685B69019308BD20020300F3
:1042FC0008B5024B1B68DB6C019308BD2002030060
:10430C0008B5024B1B685B6D019308BD20020300CE
:10431C0008B5034B1B68D3F88830019308BD000027
:10432C002002030008B5034B1B68D3F894300193AB
:10433C0008BD00002002030008B5024B1B685B6837
:10434C00019308BD4002030008B5024B1B689B6833
:10435C00019308BD4002030008B5024B1B68DB68E3
:10436C00019308BD4002030008B5024B1B681B6992
:10437C00019308BD4002030008B5024B1B685B6942
:10438C00019308BD4002030008B5024B1B689B69F2
:10439C00019308BD4002030008B5024B1B68DB69A2
:1043AC00019308BD4002030008B5024B1B681B6A51
:1043BC00019308BD4002030008B5024B1B681B6B40
:1043CC00019308BD4002030008B5024B1B685B6BF0
:1043DC00019308BD4002030008B5024B1B685B69E2
:1043EC00019308BD4402030008B5024B1B681B6A0D
:1043FC00019308BD4402030008B5024B1B68DB6B3C
:10440C00019308BD4402030008B5024B1B681B68EE
:10441C00019308BD1C02030008B5024B1B685B68C6
:10442C00019308BD1C02030008B5024B1B689B6876
:10443C00019308BD1C02030008B5024B1B68DB6A24
:10444C00019308BD1C02030008B5024B1B681B6BD3
:10445C00019308BD1C020300002211464068FFF7BF
:10446C00A3BF002211464068FFF7AEBF0022406890
:10447C00FFF7A2BF002281F001014068FFF78CBF5B
:10448C0000231A4619464068FFF77EBF00231A46E0
:10449C0019464068FFF770BF002211464068FFF7CD
:1044AC0063BF002211464068FFF74EBF0022022175
:1044BC004068FFF751BF00231A464068FFF73CBF26
:1044CC00024B03225A60024A1A607047F8E3032039
:1044DC004C590D0010B50446006818B1FFF79CFF4D
:1044EC000023236010BD10B50446FFF7F3FF2046F0
:1044FC0010BD000010B5094C00204FF6FF73206072
:10450C00A080A07120816381FFF7E2FE2046044A5F
:10451C000449BDE8104001F00BB800BF00E40320D3
:10452C00F0E30320F3440D0010B5044601F0F1F95B
:10453C00013823182046984206D20278197800F8E0
:10454C00011B03F80129F6E710BD70B50C46911E4E
:10455C00222920D82546294610B9234430220EE0C2
:10456C00B0FBF2F602FB1600C1B205F8011B0928DC
:10457C0094BF3031573105F8011C3046EBE79942B6
:10458C0002D201F8012BFAE7002320460B70FFF74B
:10459C00CBFF204670BD002070BD08B50123FFF78E
:1045AC00D4FF08BD10B504460068FFF735FF204660
:1045BC0010BD10B50446006808B1FFF72DFF0023AD
:1045CC002360A360636010BD38B504460D460068D7
:1045DC000131FFF729FF10B184E82100012038BD1B
:1045EC0010B50368044613B143688B4207D22046CA
:1045FC00FFF7EAFF20B1A3680BB922681370012002
:10460C0010BD70B50E46114604461546FFF7E8FF7F
:10461C0018B92046FFF7CDFF09E02A463146A560C0
:10462C00206801F0E5F82268A3680021D1542046E7
:10463C0070BD38B505460C4641B1084601F069F924
:10464C00214602462846FFF7DCFF01E0FFF7B1FFE9
:10465C00284638BD1FB50446002323606360A36061
:10466C002373084601A9FFF798FF01A92046FFF71D
:10467C00E0FF204604B010BD10B50446006808B138
:10468C00FFF7A6FD204610BD10B5036804469B68D5
:10469C009847A368013BA3602BB923682046DB68CD
:1046AC00BDE81040184710BD0B68036013B15A6881
:1046BC0001325A60704710B50446006828B143684F
:1046CC00013B43600BB9FFF7DFFF204610BD000034
:1046DC0010B5064C002320462360FFF771FD2046E1
:1046EC00034A0449BDE8104000F022BF0CE403204B
:1046FC00F0E3032085460D00F8B506460D468F18ED
:10470C000024BD420CD0336815F8011B9B68304661
:10471C009847002801DB0444F3E7002C08BF04464B
:10472C002046F8BD70B505460C46084649B101F067
:10473C00F0F82B68024621462846DB68BDE870403D
:10474C00184770BD03689B68184730B58BB00B4693
:10475C0000218DF82410012A98BF0A220DF12304A0
:10476C00B3FBF2F505FB123303F0FF03092B94BFE7
:10477C0030333733DBB2214604F801392B46002D98
:10478C00EED1FFF7CFFF0BB030BD0000014B024A5A
:10479C001A60704710E40320EB590D00024B1A68A5
:1047AC00024B1A60704700BF88E3032014E4032017
:1047BC000021FFF795BD10B58368044613B10322A1
:1047CC0001469847204610BD10B50446FFF7F3FF8D
:1047DC00204610BD13B50B46044603C88DE80300F4
:1047EC0093E8030084E803009DE8030083E80300DA
:1047FC0002B010BD0348044A04490023836000F052
:10480C0097BE00BF18E40320F0E30320D5470D004A
:10481C0008B50C4B33B100F017FC03681B699847C3
:10482C00002809DC084B63B100F094FC03681B6999
:10483C009847002803DC08BDAFF30080F2E7AFF324
:10484C00008008BD000000000000000008B5FFF764
:10485C00DFFFFFF795FC014B186008BD4CE7032008
:10486C000248034A0349121A00F0C2BF00F40320A5
:10487C0004F40320505C0D0007B5002300931A4686
:10488C006FF07701FFF74EFD03B05DF804FB0000FD
:10489C0007B543880A2B08D0502B09D1094B1B684C
:1048AC003BB103B05DF804EB1847FFF7E5FF06E0FA
:1048BC00002300931A466FF07701FFF733FD03B026
:1048CC005DF804FB28E4032038B5104C104D236828
:1048DC00AB42104B0CBF012200221A7002D0FFF722
:1048EC00BFFF2560FFF744FC044600F095FF0A4B20
:1048FC0013B12046AFF3008000210748FFF77CFD81
:10490C0000210648BDE83840FFF702BD00F4032043
:10491C001E1C279A2CE40320000000009D480D006B
:10492C0070470020704710B51021044600F005FEBA
:10493C00204610BD08B508B1FFF7F5FF08BD0022F1
:10494C00026010B54FF69C728280B1F904408480ED
:10495C008A8002680C6804600A6010BD10B50446B9
:10496C000068FFF759FD204610BD38B5C468F4B196
:10497C002378022B03D104F10C00FFF7EFFF6568DD
:10498C0035B12846FFF717FF1021284600F0D5FD5A
:10499C00A56835B12846FFF70EFF1021284600F018
:1049AC00CCFD20461421BDE8384000F0C6BD38BD12
:1049BC0013B5044691E8050000234B600B602060A2
:1049CC00626001A801930093FFF775FE204602B0C8
:1049DC0010BDF7B50C4602AD54F8043B45F8083D44
:1049EC0006460F4601A82146FFF75EFE29463046D3
:1049FC00FFF7DEFF01A8FFF75EFE2046FFF75BFE28
:104A0C003846082100F099FD304603B0F0BD000097
:104A1C0038B500230446036010200D46FFF735FB24
:104A2C0028B1012343608360024B0360C5602060A2
:104A3C00204638BD8C5A0D00826810B50AB900F0BA
:104A4C007EFDC368BDE81040184708B5006800F14A
:104A5C001001FFF7F1FF08BD826810B50AB900F02C
:104A6C006EFDC368BDE81040184708B5006800F13A
:104A7C001001FFF7F1FF08BD38B5002383608B6888
:104A8C0004460D462BB102229847EB68E360AB68F5
:104A9C00A360204638BD0000F0B589B004686846B4
:104AAC00FFF74DFF00238DF808304FF00202D4E8D9
:104ABC004F3F002B03D1C4E8412F0029F7D102D07E
:104ACC008DF8083063E014F10C0503D069462846D4
:104ADC00FFF735FFBFF35F8F01236370002004F1F4
:104AEC000803BFF35F8F53E8006F43E80002002A0E
:104AFC00F9D1BFF35F8F002E49D0FFF7F9FB20B13E
:104B0C0029463046FFF798FF3AE0314602A8FFF7F6
:104B1C00B3FFE068B4F9105008B100F0DFFE069066
:104B2C001020ADF81C50FFF7B0FA0546E8B100278D
:104B3C0087601820FFF7A9FA044688B10146876000
:104B4C0002A8FFF747FE049BA268A360059B049292
:104B5C0006A9E268E36004F110000592FFF7EFFE8E
:104B6C000D4BEB600D4B2C60AB6006A8FFF7F6FE0F
:104B7C0002A8FFF720FE002229460948FFF7C0FBD8
:104B8C003046FFF718FE1021304600F0D6FC684680
:104B9C00FFF7E4FE09B0F0BD574A0D00CD4C0D00F7
:104BAC00AD510D002DE9F04F8BB006460F469046E7
:104BBC0099469DF850A0FFF70FFC07AD834630BB1C
:104BCC004FF62E73059005A92846ADF81830FFF75F
:104BDC00B6FE1420FFF759FA044658B102230370AD
:104BEC0001234370C0F804B0C0F808B029460C305B
:104BFC00FFF7A5FE3046214640F8044BFFF708FFAF
:104C0C002846FFF7ABFE05A8FFF7A8FE52E00024EC
:104C1C000C2314206C60AC600793FFF736FA014646
:104C2C0018B1047044704460846004A80391FFF7C9
:104C3C00EFFE224B08930820FFF727FA044628B111
:104C4C00039B40F8043B04A9FFF72EFD00955FFA87
:104C5C008AF34A46414638460994FFF7C5FB20B90A
:104C6C00039B5B7803F0FF0283B1039B059304A9BC
:104C7C0006A8FFF719FD05A93046FFF799FE06A80F
:104C8C00FFF719FD04A8FFF716FD13E04FF69C7310
:104C9C0005A903A80592ADF81830FFF7FDFE05A88D
:104CAC00FFF75CFE05A80999FFF793FE06A8FFF72E
:104CBC0002FDDAE730460BB0BDE8F08F3D4E0D003B
:104CCC00022AF8B5044606D0032A17D0012A22D1AD
:104CDC000B6803601FE018200E68FFF7D6F9054635
:104CEC0050B13146FFF7C8FE3069B6F9147008B1FF
:104CFC0000F0F4FD2861AF8225600CE0046854B12B
:104D0C0004F11000FFF72AFE2046FFF754FD18218E
:104D1C00204600F012FC0020F8BD38B5002383605B
:104D2C008B6804460D462BB102229847EB68E36072
:104D3C00AB68A360204638BD022A70B5044606D085
:104D4C00032A11D0012A18D10B68036015E0142036
:104D5C000E68FFF79AF9054620B13146FFF7DDFFE3
:104D6C00337C2B74256008E0046834B12046FFF7CF
:104D7C0022FD1421204600F0E0FB002070BD000055
:104D8C00F0B5002387B00C46BFF35F8F50E8006F7F
:104D9C0040E80032002AF9D1BFF35F8F002E3FD0DC
:104DAC001846FFF7A5FA074620B121463046FFF713
:104DBC0053FE2EE0314601A8FFF7AFFF23788DF8A4
:104DCC0014301020FFF761F90546D0B1876014202C
:104DDC00FFF75BF9044678B18760014601A8FFF73D
:104DEC00F9FC039BA268A360049B0392E268E36056
:104DFC009DF81430049223740A4BEB600A4B2C6020
:104E0C00AB6001A8FFF7D7FC002229460748FFF743
:104E1C0077FA3046FFF7CFFC1021304600F08DFBBF
:104E2C0007B0F0BD774A0D00454D0D00AD510D009A
:104E3C0030B585B004460D4668461146FFF7C9FDEE
:104E4C007CB124B228460DB100F048FD029002A9B5
:104E5C006846ADF80C40FFF71FFE02A8FFF77EFD79
:104E6C001DE000988DF808404FF00102D0E84F3F4C
:104E7C00A34203D1C0E8412F0029F7D102D08DF80D
:104E8C0008300CE010F10C014FF0010318BF037354
:104E9C00BFF35F8F043000F8033CFFF771FF01A8EC
:104EAC00FFF709FC05B030BD704710B5182104465A
:104EBC0000F043FB204610BDF0B5037D062B8DB0F2
:104ECC000E4600F104074FF0000402D000F1080573
:104EDC0018E00CAD394605F8304D2F232A460A2030
:104EEC00FFF77EF9284600F014FD33680246DB68B4
:104EFC002946304698470FE024B12E213046FFF763
:104F0C0021FC044415F8011D0A223046FFF71DFC54
:104F1C00BD420444F0D120460DB0F0BD10B5054B98
:104F2C000446112240F8043B002100F06CFC2046A2
:104F3C0010BD00BFA85A0D000346074A10B543F830
:104F4C00042B01F1100251F8044B43F8044B91422D
:104F5C00F9D10A781A7010BDA85A0D0010B59DF839
:104F6C00084044EA032343EA024242EA0161042373
:104F7C004160037510BD37B50D788B784A78C978C8
:104F8C0000912946FFF7EAFF03B030BD417470472A
:104F9C00704708B50021007CFFF782F930EA200049
:104FAC0028BF4FF0FF3008BD08B50121007CFFF78A
:104FBC0077F930EA200028BF4FF0FF3008BD08B564
:104FCC00007CFFF765F920EAE07008BD08B5007CAD
:104FDC00FFF756F920EAE07008BD007CFFF770B9C6
:104FEC0010B51421044600F0A8FA204610BD38B5BF
:104FFC000446007C0D46FFF74BF9002801DC607C71
:10500C0028B12946207CFFF753F920EAE07038BD1F
:10501C0010B50446002363604FF47A73A360054B0C
:10502C00236001230846217463741146FFF720F9AD
:10503C00204610BDBC5A0D0010B5142204460021A8
:10504C0000F0E1FB204610BD30B50E4D87B001A835
:10505C00FFF7F2FF296811F0010410D12846FFF781
:10506C001AF860B101AA21460748FFF7D1FF28467C
:10507C00FFF716F8054A0649034800F059FA0248AA
:10508C0007B030BD30E4032034E40320F0E3032008
:10509C009D4F0D0070474174704708B5007CFFF7B9
:1050AC00D7F820EAE07008BD08B5007CFFF7B0F82F
:1050BC0020EAE07008BD08B5007CFFF7B9F830EACB
:1050CC00200028BF4FF0FF3008BD08B5007CFFF76B
:1050DC00A7F830EA200028BF4FF0FF3008BD007C55
:1050EC00FFF7AEB810B51421044600F026FA20469E
:1050FC0010BD70B5457C04460E4625B9007CFFF703
:10510C00A7F8002805DD3146207CBDE87040FFF78C
:10511C0077B8284670BD000010B504460846114605
:10512C00002262604FF47A72A260054A226001226A
:10513C00207462741A46FFF75BF8204610BD00BF5E
:10514C00EC5A0D000023007CFFF78AB80022FFF711
:10515C00F9BF000038B50C4D296811F0010411D1CC
:10516C002846FEF798FF68B1084A094B09482146C2
:10517C00FFF7D2FF2846FEF793FF074A0749054879
:10518C0000F0D6F9034838BDE0E40320E4E4032042
:10519C005CE4032048E40320F0E30320A1500D005D
:1051AC0010B5836804460BB900F0C9F9C368984779
:1051BC00A3681BB1032221462046984720461021A4
:1051CC00BDE8104000F0B9B910B5044630B100F09C
:1051DC004BFB90FBF4F303FB140010BD10BD884295
:1051EC0010B5044604DA081AFFF7EEFF204410BD90
:1051FC0010BD002211464068FFF7D6B800221146B8
:10520C004068FFF7E1B800224068FFF7D5B80022EC
:10521C0081F001014068FFF7BFB800231A46012155
:10522C004068FFF7B1B800231A4619464068FFF7EB
:10523C00A3B8002211464068FFF796B80022114629
:10524C004068FFF781B8002202214068FFF784B85C
:10525C0000231A464068FFF76FB838B5054688B189
:10526C0004684CB1A3681BB1032221462046984721
:10527C001021204600F061F928461421BDE8384081
:10528C0000F05BB938BD10B103685B681847704714
:10529C0010B503680446BBB15868FEF779FF78B9BE
:1052AC0023685A7C12B95868FEF77AFF236858684D
:1052BC00FEF77EFF20680023236028B1FFF7CDFFA7
:1052CC00206808B1FFF7C9FF204610BD38B5044669
:1052DC00D0F8C40108B1FEF7DCFED4F8C00108B167
:1052EC00FEF776FFD4F8BC5135B12846FFF7D0FF56
:1052FC000421284600F021F9206808B1FFF7C3FF0C
:10530C00204638BD10B5044B044640F8083BFFF767
:10531C00DDFF204610BD00BF1C5B0D0038B50E4CE8
:10532C000E4B23600025022304F5E4706360A56036
:10533C00C4F8C451C4F8C851FEF742FF084BC4F876
:10534C00CC5184F8D05123602046064A0649BDE86A
:10535C00384000F0EDB800BF68E50320845B0D0019
:10536C001C5B0D00F0E3032011530D0000221146CD
:10537C004068FEF7F9BF002211464068FFF714B8E9
:10538C00002211464068FFF71FB800224068FFF763
:10539C0013B8002281F001014068FEF7FDBF002325
:1053AC001A4619464068FEF7EFBF00231A46194605
:1053BC004068FEF7E1BF002211464068FEF7C4BF0B
:1053CC00002202214068FEF7C7BF00231A4640683E
:1053DC00FEF7B2BF024B04225A60024A1A607047B1
:1053EC003CE70320505B0D0000231A464068FEF793
:1053FC00A3BF002202214068FEF7AEBF0022114677
:10540C004068FEF7A1BF002211464068FEF7ACBF12
:10541C0000231A4619464068FEF7AEBF00231A4611
:10542C0019464068FEF7B0BF002281F001014068C8
:10543C00FEF7B2BF00224068FEF7BEBF0022114645
:10544C004068FEF7C1BF002211464068FEF7ACBFB2
:10545C002DE9F043002495B016460D460746FFF79C
:10546C005DFD214620220CA8009400F0CCF94023CD
:10547C000C9321466B460CAA3046FEF769FE044697
:10548C00002844D1024601216868FEF76DFF022115
:10549C00804622466868FEF767FF009E81462146DB
:1054AC00002E34D0002932D17368022B02D00A2B83
:1054BC0009D02AE0B8F1000F27D0716938460431C1
:1054CC00FFF759FD20E0B9F1000F1ED074691122CD
:1054DC0001A800F098F906238DF8143001AD04F101
:1054EC0008031834186859682A4603C20833A342C3
:1054FC001546F7D101A906A807ADFFF71DFD0FCD85
:10550C003C1D0FC42B6823700121F669C8E7009875
:10551C00FEF716FE384615B0BDE8F083024B034A81
:10552C001A6000225A60704744E70320845B0D0028
:10553C000B460146184600F04DB9FEF7A8BD08B55C
:10554C00FEF77AFF184B1A68D1075CBF01221A606C
:10555C00164B1A68D2075CBF01221A60144B1A68EA
:10556C00D0075CBF01221A60124B1A68D1075CBFCE
:10557C0001221A60104B1A68D2075CBF01221A6014
:10558C000E4B1A68D0075CBF01221A600C4B1A68CC
:10559C00D1075CBF01221A600A4B1A68D2075CBFA4
:1055AC0001221A60704700BF6CE7032068E70320F4
:1055BC0064E7032060E703205CE7032058E703203F
:1055CC0054E7032050E70320244B1A68D0075CBF34
:1055DC0001221A60224B1A68D1075CBF01221A60A3
:1055EC00204B1A68D2075CBF01221A601E4B1A6846
:1055FC00D0075CBF01221A601C4B1A68D1075CBF34
:10560C0001221A601A4B1A68D2075CBF01221A6079
:10561C00184B1A68D0075CBF01221A60164B1A6827
:10562C00D1075CBF01221A60144B1A68D2075CBF09
:10563C0001221A60124B1A68D0075CBF01221A6053
:10564C00104B1A68D1075CBF01221A600E4B1A6806
:10565C00D2075CBF01221A60704700BF9CE7032091
:10566C0098E7032094E7032090E703208CE70320BE
:10567C0088E7032084E7032080E703207CE70320EE
:10568C0078E7032074E7032070E70320244B1A68A3
:10569C00D0075CBF01221A60224B1A68D1075CBF8D
:1056AC0001221A60204B1A68D2075CBF01221A60D3
:1056BC001E4B1A68D0075CBF01221A601C4B1A687B
:1056CC00D1075CBF01221A601A4B1A68D2075CBF63
:1056DC0001221A60184B1A68D0075CBF01221A60AD
:1056EC00164B1A68D1075CBF01221A60144B1A685A
:1056FC00D2075CBF01221A60124B1A68D0075CBF3C
:10570C0001221A60104B1A68D1075CBF01221A6083
:10571C000E4B1A68D2075CBF01221A60704700BF9B
:10572C00CCE70320C8E70320C4E70320C0E703202D
:10573C00BCE70320B8E70320B4E70320B0E703205D
:10574C00ACE70320A8E70320A4E70320A0E703208D
:10575C00184B1A68D1075CBF01221A60164B1A68E5
:10576C00D2075CBF01221A60144B1A68D0075CBFC9
:10577C0001221A60124B1A68D1075CBF01221A6011
:10578C00104B1A68D2075CBF01221A600E4B1A68C4
:10579C00D0075CBF01221A600C4B1A68D1075CBFA2
:1057AC0001221A600A4B1A68D2075CBF01221A60E8
:1057BC00704700BFECE70320E8E70320E4E7032091
:1057CC00E0E70320DCE70320D8E70320D4E703203D
:1057DC00D0E7032010B5054C13462CB10A46014600
:1057EC000220AFF3008010BD204610BD0000000069
:1057FC0010B5431E0A44914204D011F8014B03F832
:10580C00014FF8E710BD02440346934202D003F85F
:10581C00011BFAE77047000038B5124B1C68A36BEC
:10582C000546D3B91820FEF7EFFD43F20E33A06303
:10583C0003804AF6CD33438041F2342383804EF209
:10584C006D63C3804DF6EC630381052343810B2309
:10585C00838101220023C0E90423A36B00221D6174
:10586C005A6138BDECE30320194B10B51C68A36BCF
:10587C00D3B91820FEF7C8FD43F20E33A0630380A2
:10588C004AF6CD33438041F2342383804EF26D636C
:10589C00C3804DF6EC630381052343810B23838185
:1058AC0001220023C0E90423A16B0A4C0B6948694F
:1058BC00094A5C4302FB0040A3FB02230132034470
:1058CC0043F10003C1E9042323F0004010BD00BFE5
:1058DC00ECE303202DF451582D7F954C024B0146DF
:1058EC00186800F003B800BFECE3032070B506465F
:1058FC0008460C4600F00DF8451C29463046FEF7CC
:10590C00A3FD064618B12A462146FFF771FF304623
:10591C0070BD034613F8012B002AFBD1181A01386D
:10592C00704700001D400D0059400D0085400D00D2
:10593C0089400D0000000000000000000000000085
:10594C00C3440D00B9440D00AF440D00A5440D0037
:10595C0099440D008D440D0081440D0079440D00D7
:10596C006F440D0065440D005D540D00626175645B
:10597C000053657269616C0053657269616C31002A
:10598C007479706500706172616D00636D6400699B
:10599C006400686E64007374726D0066696C7400E8
:1059AC006C766C0061646448616E646C6572007244
:1059BC00656D6F766548616E646C657200656E75B9
:1059CC006D48616E646C657273004A534F4E53742C
:1059DC007265616D4C6F6748616E646C65720061D5
:1059EC00707000253031307520005D20002564007A
:1059FC002C200028293A2000205B00636F6465206E
:105A0C003D200025690064657461696C73203D203C
:105A1C00000D0A0066006C6E00666E00636F6465B4
:105A2C000064657461696C006E6F6E650074726100
:105A3C00636500696E666F007761726E00657272E5
:105A4C006F720070616E696300616C6C005A0025A6
:105A5C002B3033643A253032750025592D256D2DA8
:105A6C0025645425483A254D3A2553257A0061730F
:105A7C006374696D65000000000000000000000008
:105A8C002D490D0033490D0077490D0041490D009A
:105A9C002F490D000000000000000000C54E0D0055
:105AAC00B54E0D00B74E0D000000000000000000C8
:105ABC009D4F0D00ED4F0D00FB4F0D0005470D00E8
:105ACC00D94F0D009F4F0D00B54F0D00E74F0D0046
:105ADC00CB4F0D00994F0D0000000000000000009E
:105AEC00A1500D00F1500D00FF500D0005470D00A9
:105AFC00B5500D00D7500D00C3500D00EB500D00EC
:105B0C00A3500D00A7500D00000000000000000085
:105B1C005D520D0053520D0049520D003F520D00C5
:105B2C0033520D0027520D001B520D0013520D0065
:105B3C0009520D00FF510D005D540D0000000000D6
:105B4C0000000000D7530D00CD530D00C3530D00C2
:105B5C0079530D00B7530D00AB530D009F530D003F
:105B6C0097530D008D530D0083530D005D540D00A4
:105B7C000000000000000000F5530D00FF530D0065
:105B8C0009540D0013540D001D540D0029540D0023
:105B9C0035540D0041540D0049540D0053540D0063
:105BAC005D540D000000000000000000000000002B
:105BBC0000000000000000000000000000000000D9
:105BCC0000000000000000000000000000000000C9
:105BDC0000000000000000000000000000000000B9
:105BEC0000000000000000000000000000000000A9
:105BFC000000000000000000000000000000000099
:105C0C0000000000430000003D410D00CD440D009C
:105C1C0001450D00DD460D0099470D00A9470D000B
:105C2C0001480D0029530D00E1530D0029550D00BD
:105C3C0051550D00D5550D0099560D005D570D00B1
:045C4C000000000054
:045C50000000000050
:105C54007A5A0D0000000000B05B0D00D05B0D000F
:105C6400F05B0D00000000000000000000000000D8
:105C740000000000105C0D000000000000000000A7
:105C84000000000000000000000000000000000010
:105C94000000000000000000000000000000000000
:105CA40000000000000000000000000000000000F0
:085CB400000000008CE3032056
:105CBC00FFFFFFFF00000102030405060708090AA5
:105CCC000B0C0D0E0F101112131415161718191AA0
:085CDC001B1C1D1E1F202800E7
:045CE40078563412A8
:04000003D000401CCD
:00000001FF
