:02000002D0002C
:1040000000400D00785E0D00000006000C00050168
:084010000401E80500000000B6
:04401800085A0D0035
:10401C0009480A49884208B505D0094A824202D0AB
:10402C00121A01F051FC0748074A0021121A01F03C
:10403C0056FC014808BD00BFD4E20320345D0D00DE
:10404C00F0E30320F0E30320F0E7032070B500F069
:10405C00A7FC074C074BE41AA40800251E46A542F2
:10406C0004D056F8253098470135F8E770BD00BFED
:10407C00285D0D00F05C0D0000F026B808B500F0CE
:10408C0043F8BDE8084000F04DBC00F0E3B900F087
:10409C00E9B900F0E7B90078B0FA80F04009704750
:1040AC00012303707047000013B5064B1B788DF885
:1040BC00003000223C23044600F0E0FD204602B014
:1040CC0010BD00BFF4E3032008B501F0AFF84FF4C6
:1040DC00E131BDE8084001F0A5B838B504680546E3
:1040EC007CB16368013B63605BB9236820469B68C5
:1040FC009847A368013BA3601BB923682046DB6883
:10410C009847284638BD000010B55B2186B0412089
:10411C0001F0D1F8164C174B187001F087F82346B4
:10412C00154A002100F063FB214602A800F0AFFA0B
:10413C0002996846FFF7B8FF01A8FFF7CEFF02A867
:10414C0000F05EFA0A22B12102A800F0C4FA02992A
:10415C006846FFF7A9FF01A8FFF7BFFF02A800F010
:10416C004FFA41F2883000F08FFB06B010BD00BF53
:10417C00D4E20320F5E303201C5A0D00024B00226D
:10418C001A7000F013B800BFF4E3032008B5024B1B
:10419C001B689B68019308BD6802030008B5024BBD
:1041AC001B68DB68019308BD6802030008B5024B6D
:1041BC001B681B68019308BD2C02030008B5024B59
:1041CC001B685B68019308BD1802030008B5024B1D
:1041DC001B685B69019308BD1802030008B5024B0C
:1041EC001B689B68019308BD4802030008B5024B8D
:1041FC001B681B69019308BD4802030008B5024BFC
:10420C001B685B69019308BD4802030008B5024BAB
:10421C001B685B6C019308BD4802030008B5024B98
:10422C001B689B6C019308BD4802030008B5024B48
:10423C001B685B69019308BD6402030008B5024B5F
:10424C001B681B68019308BD3C02030008B5024BB8
:10425C001B68DB68019308BD3C02030008B5024BE8
:10426C001B681B69019308BD3C02030008B5024B97
:10427C001B685B69019308BD3C02030008B5024B47
:10428C001B689B69019308BD3C02030008B5024BF7
:10429C001B68DB69019308BD3C02030008B5024BA7
:1042AC001B689B6A019308BD3C02030008B5024BD6
:1042BC001B68DB6A019308BD3C02030008B5024B86
:1042CC001B681B68019308BD4C02030008B5024B28
:1042DC001B681B69019308BD4C02030008B5024B17
:1042EC001B685B69019308BD4C02030008B5024BC7
:1042FC001B689B69019308BD4C02030008B5024B77
:10430C001B68DB69019308BD4C02030008B5024B26
:10431C001B681B6A019308BD4C02030008B5024BD5
:10432C001B685B68019308BD2002030008B5024BB3
:10433C001B685B69019308BD2002030008B5024BA2
:10434C001B68DB6C019308BD2002030008B5024B0F
:10435C001B685B6D019308BD2002030008B5034B7D
:10436C001B68D3F88830019308BD000020020300BD
:10437C0008B5034B1B68D3F89430019308BD0000BB
:10438C002002030008B5024B1B685B68019308BD53
:10439C004002030008B5024B1B689B68019308BDE3
:1043AC004002030008B5024B1B68DB68019308BD93
:1043BC004002030008B5024B1B681B69019308BD42
:1043CC004002030008B5024B1B685B69019308BDF2
:1043DC004002030008B5024B1B689B69019308BDA2
:1043EC004002030008B5024B1B68DB69019308BD52
:1043FC004002030008B5024B1B681B6A019308BD01
:10440C004002030008B5024B1B681B6B019308BDEF
:10441C004002030008B5024B1B685B6B019308BD9F
:10442C004002030008B5024B1B685B69019308BD91
:10443C004402030008B5024B1B681B6A019308BDBC
:10444C004402030008B5024B1B68DB6B019308BDEB
:10445C004402030008B5024B1B681B68019308BD9E
:10446C001C02030008B5024B1B685B68019308BD76
:10447C001C02030008B5024B1B689B68019308BD26
:10448C001C02030008B5024B1B685B6A019308BD54
:10449C001C02030008B5024B1B68DB6A019308BDC4
:1044AC001C02030008B5024B1B681B6B019308BD73
:1044BC001C020300002211464068FFF79BBF00223C
:1044CC0011464068FFF7A6BF00224068FFF79ABF6D
:1044DC00002281F001014068FFF784BF00231A46D7
:1044EC0019464068FFF776BF00231A461946406804
:1044FC00FFF768BF002211464068FFF75BBF002240
:10450C0011464068FFF746BF002202214068FFF7C2
:10451C0049BF00231A464068FFF734BF024B032201
:10452C005A60024A1A607047F8E30320285A0D00BB
:10453C0010B50446006818B1FFF794FF0023236000
:10454C0010BD10B50446FFF7F3FF204610BD000068
:10455C0010B5094C00204FF6FF732060A080A071AD
:10456C0020816381FFF7DAFE2046044A0449BDE846
:10457C00104001F049B800BF00E40320F0E3032031
:10458C004F450D0010B5044601F02FFA01382318E1
:10459C002046984206D20278197800F8011B03F8DD
:1045AC000129F6E710BD70B50C46911E222920D8C2
:1045BC002546294610B9234430220EE0B0FBF2F612
:1045CC0002FB1600C1B205F8011B092894BF30315B
:1045DC00573105F8011C3046EBE7994202D201F83D
:1045EC00012BFAE7002320460B70FFF7CBFF204688
:1045FC0070BD002070BD08B50123FFF7D4FF08BDC6
:10460C0010B504460068FFF72DFF204610BD10B50D
:10461C000446006808B1FFF725FF00232360A36060
:10462C00636010BD38B504460D4600680131FFF7D4
:10463C0021FF10B184E82100012038BD10B50368BA
:10464C00044613B143688B4207D22046FFF7EAFFBA
:10465C0020B1A3680BB922681370012010BD70B58E
:10466C000E46114604461546FFF7E8FF18B92046DA
:10467C00FFF7CDFF09E02A463146A560206801F01E
:10468C0023F92268A3680021D154204670BD38B5A7
:10469C000023044603604360836003730D4639B105
:1046AC00084601F0A2F9294602462046FFF7D7FF3B
:1046BC00204638BD38B505460C4641B1084601F0D8
:1046CC0094F9214602462846FFF7C9FF01E0FFF79F
:1046DC009EFF284638BD10B5044600238AB02360DF
:1046EC006360A3602373084601A9FFF784FF01A947
:1046FC002046FFF7DFFF20460AB010BD10B5044678
:10470C00006808B1FFF78AFD204610BD0B680360F6
:10471C0013B15A6801325A607047000010B5064C4C
:10472C00002320462360FFF771FD2046034A04490D
:10473C00BDE8104000F068BF0CE40320F0E3032058
:10474C0009470D00F8B506460D468F180024BD42EA
:10475C000CD0336815F8011B9B683046984700282D
:10476C0001DB0444F3E7002C08BF04462046F8BDE7
:10477C0070B505460C46084649B101F036F92B6870
:10478C00024621462846DB68BDE87040184770BDDC
:10479C0003689B68184738B50D210546FFF7F8FFED
:1047AC000A2104462846FFF7F3FF204438BD30B5F4
:1047BC008BB00B4600218DF82410012A98BF0A22D9
:1047CC000DF12304B3FBF2F505FB123303F0FF03E9
:1047DC00092B94BF30333733DBB2214604F801394F
:1047EC002B46002DEED1FFF7C3FF0BB030BD0CB440
:1047FC002DE9F04387B000AF07F13804054654F8B3
:10480C00049B3C600E4623464A461421381DFFF794
:10481C0039FE132805D8391D2846FFF7A9FF044691
:10482C0013E000F1080323F00703E846ADEB030D9A
:10483C00411C23464A4668463C60FFF723FE694606
:10484C002846FFF795FF0446C5461EB12846FFF7DC
:10485C00A2FF044420461C37BD46BDE8F04302B01D
:10486C0070470000014B024A1A60704710E40320A5
:10487C00C75A0D00024B1A68024B1A60704700BFF2
:10488C0088E3032014E403200021FFF74FBD10B58B
:10489C008368044613B1032201469847204610BD95
:1048AC0010B50446FFF7F3FF204610BD13B50B46B9
:1048BC00044603C88DE8030093E8030084E8030072
:1048CC009DE8030083E8030002B010BD0348044ACE
:1048DC0004490023836000F097BE00BF18E4032056
:1048EC00F0E30320AD480D0008B50C4B33B100F0DC
:1048FC0017FC03681B699847002809DC084B63B157
:10490C0000F094FC03681B699847002803DC08BD81
:10491C00AFF30080F2E7AFF3008008BD00000000A9
:10492C000000000008B5FFF7DFFFFFF74FFC014B5D
:10493C00186008BD4CE703200248034A0349121AC9
:10494C0000F0C2BF00F4032004F40320305D0D001E
:10495C0007B5002300931A466FF07701FFF708FDA7
:10496C0003B05DF804FB000007B543880A2B08D0A0
:10497C00502B09D1094B1B683BB103B05DF804EB1C
:10498C001847FFF7E5FF06E0002300931A466FF087
:10499C007701FFF7EDFC03B05DF804FB28E403207E
:1049AC0038B5104C104D2368AB42104B0CBF012294
:1049BC0000221A7002D0FFF7BFFF2560FFF7FEFB45
:1049CC00044600F095FF0A4B13B12046AFF300806C
:1049DC0000210748FFF736FD00210648BDE83840A6
:1049EC00FFF7BCBC00F403201E1C279A2CE4032008
:1049FC000000000075490D0070470020704710B58D
:104A0C001021044600F005FE204610BD08B508B183
:104A1C00FFF7F5FF08BD0022026010B54FF69C723F
:104A2C008280B1F9044084808A8002680C6804603A
:104A3C000A6010BD10B504460068FFF713FD204650
:104A4C0010BD38B5C468F4B12378022B03D104F13E
:104A5C000C00FFF7EFFF656835B12846FFF717FF2D
:104A6C001021284600F0D5FDA56835B12846FFF782
:104A7C000EFF1021284600F0CCFD20461421BDE885
:104A8C00384000F0C6BD38BD13B5044691E80500AA
:104A9C0000234B600B602060626001A801930093BF
:104AAC00FFF71BFB204602B010BDF7B50C4602AD5C
:104ABC0054F8043B45F8083D06460F4601A821462C
:104ACC00FFF724FE29463046FFF7DEFF01A8FFF76B
:104ADC0004FB2046FFF701FB3846082100F099FD46
:104AEC00304603B0F0BD000038B500230446036027
:104AFC0010200D46FFF7C9FA28B1012343608360EB
:104B0C00024B0360C5602060204638BD685B0D0019
:104B1C00826810B50AB900F07EFDC368BDE810408C
:104B2C00184708B5006800F11001FFF7F1FF08BD48
:104B3C00826810B50AB900F06EFDC368BDE810407C
:104B4C00184708B5006800F11001FFF7F1FF08BD28
:104B5C0038B5002383608B6804460D462BB10222C6
:104B6C009847EB68E360AB68A360204638BD000053
:104B7C00F0B589B004686846FFF74DFF00238DF847
:104B8C0008304FF00202D4E84F3F002B03D1C4E8A9
:104B9C00412F0029F7D102D08DF8083063E014F1D1
:104BAC000C0503D069462846FFF735FFBFF35F8F2E
:104BBC0001236370002004F10803BFF35F8F53E8F7
:104BCC00006F43E80002002AF9D1BFF35F8F002E7B
:104BDC0049D0FFF7B3FB20B129463046FFF798FFC9
:104BEC003AE0314602A8FFF7B3FFE068B4F9105081
:104BFC0008B100F0DFFE06901020ADF81C50FFF756
:104C0C0044FA0546E8B1002787601820FFF73DFA03
:104C1C00044688B10146876002A8FFF747FE049B53
:104C2C00A268A360059B049206A9E268E36004F104
:104C3C0010000592FFF7EFFE0D4BEB600D4B2C6057
:104C4C00AB6006A8FFF7F6FE02A8FFF720FE0022D5
:104C5C0029460948FFF77AFB3046FFF718FE10216A
:104C6C00304600F0D6FC6846FFF7E4FE09B0F0BD14
:104C7C002F4B0D00A54D0D0085520D002DE9F04F69
:104C8C008BB006460F46904699469DF850A0FFF70C
:104C9C00C9FB07AD834630BB4FF62E73059005A9B3
:104CAC002846ADF81830FFF7B6FE1420FFF7EDF9E3
:104CBC00044658B10223037001234370C0F804B0BA
:104CCC00C0F808B029460C30FFF7A5FE3046214647
:104CDC0040F8044BFFF708FF2846FFF7ABFE05A88A
:104CEC00FFF7A8FE52E000240C2314206C60AC608B
:104CFC000793FFF7CAF9014618B104704470446079
:104D0C00846004A80391FFF7EFFE224B0893082060
:104D1C00FFF7BBF9044628B1039B40F8043B04A9F8
:104D2C00FFF7F4FC00955FFA8AF34A464146384691
:104D3C000994FFF77FFB20B9039B5B7803F0FF021C
:104D4C0083B1039B059304A906A8FFF7DFFC05A913
:104D5C003046FFF799FE06A8FFF7BFF904A8FFF746
:104D6C00BCF913E04FF69C7305A903A80592ADF8A6
:104D7C001830FFF7FDFE05A8FFF75CFE05A80999A2
:104D8C00FFF793FE06A8FFF7A8F9DAE730460BB059
:104D9C00BDE8F08F154F0D00022AF8B5044606D079
:104DAC00032A17D0012A22D10B6803601FE01820B8
:104DBC000E68FFF76AF9054650B13146FFF7C8FE99
:104DCC003069B6F9147008B100F0F4FD2861AF82B7
:104DDC0025600CE0046854B104F11000FFF72AFEC2
:104DEC002046FFF754FD1821204600F012FC00204D
:104DFC00F8BD38B5002383608B6804460D462BB193
:104E0C0002229847EB68E360AB68A360204638BD8C
:104E1C00022A70B5044606D0032A11D0012A18D1F3
:104E2C000B68036015E014200E68FFF72EF9054699
:104E3C0020B13146FFF7DDFF337C2B74256008E091
:104E4C00046834B12046FFF722FD1421204600F0FF
:104E5C00E0FB002070BD0000F0B5002387B00C46CD
:104E6C00BFF35F8F50E8006F40E80032002AF9D1A1
:104E7C00BFF35F8F002E3FD01846FFF75FFA07464F
:104E8C0020B121463046FFF753FE2EE0314601A8F3
:104E9C00FFF7AFFF23788DF814301020FFF7F5F8EB
:104EAC000546D0B187601420FFF7EFF8044678B1BF
:104EBC008760014601A8FFF7F9FC039BA268A36079
:104ECC00049B0392E268E3609DF81430049223740F
:104EDC000A4BEB600A4B2C60AB6001A8FFF7D7FCC8
:104EEC00002229460748FFF731FA3046FFF7CFFC7E
:104EFC001021304600F08DFB07B0F0BD4F4B0D007C
:104F0C001D4E0D0085520D0030B585B004460D4682
:104F1C0068461146FFF7C9FD7CB124B228460DB195
:104F2C0000F048FD029002A96846ADF80C40FFF76E
:104F3C001FFE02A8FFF77EFD1DE000988DF80840CB
:104F4C004FF00102D0E84F3FA34203D1C0E8412FFC
:104F5C000029F7D102D08DF808300CE010F10C01CB
:104F6C004FF0010318BF0373BFF35F8F043000F8D9
:104F7C00033CFFF771FF01A8FFF7AFF805B030BD98
:104F8C00704710B51821044600F043FB204610BDB5
:104F9C00F0B5037D062B8DB00E4600F104074FF0E3
:104FAC00000402D000F1080518E00CAD394605F8F4
:104FBC00304D2F232A460A20FFF738F9284600F0F7
:104FCC0014FD33680246DB682946304698470FE0EB
:104FDC0024B12E213046FFF7DBFB044415F8011DEC
:104FEC000A223046FFF7E3FBBD420444F0D12046D1
:104FFC000DB0F0BD10B5054B0446112240F8043B32
:10500C00002100F06CFC204610BD00BF845B0D003D
:10501C000346074A10B543F8042B01F1100251F86E
:10502C00044B43F8044B9142F9D10A781A7010BD25
:10503C00845B0D0010B59DF8084044EA032343EA55
:10504C00024242EA016104234160037510BD37B589
:10505C000D788B784A78C97800912946FFF7EAFFDA
:10506C0003B030BD41747047704708B50021007C17
:10507C00FFF73CF930EA200028BF4FF0FF3008BDA5
:10508C0008B50121007CFFF731F930EA200028BF78
:10509C004FF0FF3008BD08B5007CFFF71FF920EA80
:1050AC00E07008BD08B5007CFFF710F920EAE0704D
:1050BC0008BD007CFFF72AB910B51421044600F096
:1050CC00A8FA204610BD38B50446007C0D46FFF703
:1050DC0005F9002801DC607C28B12946207CFFF70B
:1050EC000DF920EAE07038BD10B50446002363606A
:1050FC004FF47A73A360054B236001230846217497
:10510C0063741146FFF7DAF8204610BD985B0D006A
:10511C0010B514220446002100F0E1FB204610BD1E
:10512C0030B50E4D87B001A8FFF7F2FF296811F0DA
:10513C00010410D12846FEF7AEFF60B101AA21464A
:10514C000748FFF7D1FF2846FEF7AAFF054A064994
:10515C00034800F059FA024807B030BD30E4032090
:10516C0034E40320F0E3032075500D0070474174C4
:10517C00704708B5007CFFF791F820EAE07008BD95
:10518C0008B5007CFFF76AF820EAE07008BD08B5A6
:10519C00007CFFF773F830EA200028BF4FF0FF3097
:1051AC0008BD08B5007CFFF761F830EA200028BF85
:1051BC004FF0FF3008BD007CFFF768B810B5142124
:1051CC00044600F026FA204610BD70B5457C044616
:1051DC000E4625B9007CFFF761F8002805DD314645
:1051EC00207CBDE87040FFF731B8284670BD000048
:1051FC0010B5044608461146002262604FF47A72DC
:10520C00A260054A22600122207462741A46FFF7DC
:10521C0015F8204610BD00BFC85B0D000023007CB4
:10522C00FFF744B80022FFF7F9BF000038B50C4D6A
:10523C00296811F0010411D12846FEF72CFF68B142
:10524C00084A094B09482146FFF7D2FF2846FEF7CA
:10525C0027FF074A0749054800F0D6F9034838BD2F
:10526C00E0E40320E4E403205CE4032048E40320AE
:10527C00F0E3032079510D0010B5836804460BB997
:10528C0000F0C9F9C3689847A3681BB103222146F3
:10529C002046984720461021BDE8104000F0B9B9CF
:1052AC0010B5044630B100F04BFB90FBF4F303FB5C
:1052BC00140010BD10BD884210B5044604DA081A5B
:1052CC00FFF7EEFF204410BD10BD002211464068D0
:1052DC00FFF790B8002211464068FFF79BB80022F8
:1052EC004068FFF78FB8002281F001014068FFF79A
:1052FC0079B800231A4601214068FFF76BB80023E8
:10530C001A4619464068FFF75DB8002211464068FE
:10531C00FFF750B8002211464068FFF73BB8002257
:10532C0002214068FFF73EB800231A464068FFF799
:10533C0029B838B5054688B104684CB1A3681BB1CF
:10534C0003222146204698471021204600F061F99F
:10535C0028461421BDE8384000F05BB938BD10B1C7
:10536C0003685B681847704710B503680446BBB107
:10537C005868FEF733FF78B923685A7C12B958681D
:10538C00FEF734FF23685868FEF738FF20680023C7
:10539C00236028B1FFF7CDFF206808B1FFF7C9FFE4
:1053AC00204610BD38B50446D0F8C40108B1FEF74C
:1053BC0070FED4F8C00108B1FEF730FFD4F8BC5130
:1053CC0035B12846FFF7D0FF0421284600F021F91B
:1053DC00206808B1FFF7C3FF204638BD10B5044B59
:1053EC00044640F8083BFFF7DDFF204610BD00BF28
:1053FC00F85B0D0038B50E4C0E4B236000250223D4
:10540C0004F5E4706360A560C4F8C451C4F8C851D5
:10541C00FEF7FCFE084BC4F8CC5184F8D051236045
:10542C002046064A0649BDE8384000F0EDB800BFFA
:10543C0068E50320605C0D00F85B0D00F0E30320D1
:10544C00E9530D00002211464068FEF7B3BF00225D
:10545C0011464068FEF7CEBF002211464068FEF7A9
:10546C00D9BF00224068FEF7CDBF002281F00101B8
:10547C004068FEF7B7BF00231A4619464068FEF78E
:10548C00A9BF00231A4619464068FEF79BBF0022AD
:10549C0011464068FEF77EBF002202214068FEF7ED
:1054AC0081BF00231A464068FEF76CBF024B0422F2
:1054BC005A60024A1A6070473CE703202C5C0D00CE
:1054CC0000231A464068FEF75DBF002202214068A7
:1054DC00FEF768BF002211464068FEF75BBF002252
:1054EC0011464068FEF766BF00231A46194640680D
:1054FC00FEF768BF00231A4619464068FEF76ABFDC
:10550C00002281F001014068FEF76CBF0022406868
:10551C00FEF778BF002211464068FEF77BBF0022E1
:10552C0011464068FEF766BF2DE9F043002495B0A4
:10553C0016460D460746FFF75DFD214620220CA8B6
:10554C00009400F0CCF940230C9321466B460CAA36
:10555C003046FEF723FE0446002844D102460121C2
:10556C006868FEF727FF0221804622466868FEF72E
:10557C0021FF009E81462146002E34D0002932D1D5
:10558C007368022B02D00A2B09D02AE0B8F1000F65
:10559C0027D0716938460431FFF759FD20E0B9F185
:1055AC00000F1ED07469112201A800F098F906238F
:1055BC008DF8143001AD04F10803183418685968DB
:1055CC002A4603C20833A3421546F7D101A906A8FF
:1055DC0007ADFFF71DFD0FCD3C1D0FC42B682370CD
:1055EC000121F669C8E70098FEF7D0FD384615B0E2
:1055FC00BDE8F083024B034A1A6000225A607047E0
:10560C0044E70320605C0D000B460146184600F091
:10561C004DB9FEF73CBD08B5FEF73CFF184B1A68B8
:10562C00D1075CBF01221A60164B1A68D2075CBF07
:10563C0001221A60144B1A68D0075CBF01221A6051
:10564C00124B1A68D1075CBF01221A60104B1A6802
:10565C00D2075CBF01221A600E4B1A68D0075CBFE0
:10566C0001221A600C4B1A68D1075CBF01221A6028
:10567C000A4B1A68D2075CBF01221A60704700BF40
:10568C006CE7032068E7032064E7032060E703204E
:10569C005CE7032058E7032054E7032050E703207E
:1056AC00244B1A68D0075CBF01221A60224B1A687F
:1056BC00D1075CBF01221A60204B1A68D2075CBF6D
:1056CC0001221A601E4B1A68D0075CBF01221A60B7
:1056DC001C4B1A68D1075CBF01221A601A4B1A685E
:1056EC00D2075CBF01221A60184B1A68D0075CBF46
:1056FC0001221A60164B1A68D1075CBF01221A608E
:10570C00144B1A68D2075CBF01221A60124B1A683C
:10571C00D0075CBF01221A60104B1A68D1075CBF1E
:10572C0001221A600E4B1A68D2075CBF01221A6064
:10573C00704700BF9CE7032098E7032094E7032001
:10574C0090E703208CE7032088E7032084E70320FD
:10575C0080E703207CE7032078E7032074E703202D
:10576C0070E70320244B1A68D0075CBF01221A6033
:10577C00224B1A68D1075CBF01221A60204B1A68B1
:10578C00D2075CBF01221A601E4B1A68D0075CBF9F
:10579C0001221A601C4B1A68D1075CBF01221A60E7
:1057AC001A4B1A68D2075CBF01221A60184B1A6890
:1057BC00D0075CBF01221A60164B1A68D1075CBF78
:1057CC0001221A60144B1A68D2075CBF01221A60BE
:1057DC00124B1A68D0075CBF01221A60104B1A6872
:1057EC00D1075CBF01221A600E4B1A68D2075CBF4E
:1057FC0001221A60704700BFCCE70320C8E70320E2
:10580C00C4E70320C0E70320BCE70320B8E703206C
:10581C00B4E70320B0E70320ACE70320A8E703209C
:10582C00A4E70320A0E70320184B1A68D1075CBF3C
:10583C0001221A60164B1A68D2075CBF01221A604B
:10584C00144B1A68D0075CBF01221A60124B1A68FD
:10585C00D1075CBF01221A60104B1A68D2075CBFDB
:10586C0001221A600E4B1A68D0075CBF01221A6025
:10587C000C4B1A68D1075CBF01221A600A4B1A68DC
:10588C00D2075CBF01221A60704700BFECE703200F
:10589C00E8E70320E4E70320E0E70320DCE703204C
:1058AC00D8E70320D4E70320D0E7032010B5054C3C
:1058BC0013462CB10A4601460220AFF3008010BDFE
:1058CC00204610BD0000000010B5431E0A44914252
:1058DC0004D011F8014B03F8014FF8E710BD024456
:1058EC000346934202D003F8011BFAE7704700000D
:1058FC0038B5124B1C68A36B0546D3B91820FEF7BC
:10590C00A9FD43F20E33A06303804AF6CD334380E6
:10591C0041F2342383804EF26D63C3804DF6EC6309
:10592C000381052343810B23838101220023C0E9DA
:10593C000423A36B00221D615A6138BDECE30320E4
:10594C00194B10B51C68A36BD3B91820FEF782FD58
:10595C0043F20E33A06303804AF6CD33438041F209
:10596C00342383804EF26D63C3804DF6EC63038168
:10597C00052343810B23838101220023C0E90423E7
:10598C00A16B0A4C0B694869094A5C4302FB004055
:10599C00A3FB02230132034443F10003C1E90423B6
:1059AC0023F0004010BD00BFECE303202DF4515850
:1059BC002D7F954C024B0146186800F003B800BFD0
:1059CC00ECE3032070B5064608460C4600F00DF8D3
:1059DC00451C29463046FEF765FD064618B12A4699
:1059EC002146FFF771FF304670BD034613F8012BBB
:1059FC00002AFBD1181A0138704700001D400D0019
:105A0C0059400D0085400D0089400D00000000003C
:105A1C002573000000000000000000001F450D0071
:105A2C0015450D000B450D0001450D00F5440D000D
:105A3C00E9440D00DD440D00D5440D00CB440D00B0
:105A4C00C1440D0035550D006261756400536572DB
:105A5C0069616C0053657269616C310074797065B1
:105A6C0000706172616D00636D6400696400686E42
:105A7C0064007374726D0066696C74006C766C00F3
:105A8C0061646448616E646C65720072656D6F76FA
:105A9C006548616E646C657200656E756D48616E0B
:105AAC00646C657273004A534F4E53747265616D2A
:105ABC004C6F6748616E646C657200617070002594
:105ACC003031307520005D20002564002C2000282A
:105ADC00293A2000205B00636F6465203D2000257F
:105AEC00690064657461696C73203D20000D0A00C7
:105AFC0066006C6E00666E00636F646500646574AE
:105B0C0061696C006E6F6E6500747261636500692B
:105B1C006E666F007761726E006572726F720070E4
:105B2C00616E696300616C6C005A00252B30336424
:105B3C003A253032750025592D256D2D25645425B7
:105B4C00483A254D3A2553257A0061736374696D83
:105B5C00650000000000000000000000054A0D0078
:105B6C000B4A0D004F4A0D00194A0D00074A0D0053
:105B7C0000000000000000009D4F0D008D4F0D0037
:105B8C008F4F0D00000000000000000075500D004C
:105B9C00C5500D00D3500D0051470D00B1500D00F4
:105BAC0077500D008D500D00BF500D00A3500D000F
:105BBC0071500D00000000000000000079510D0034
:105BCC00C9510D00D7510D0051470D008D510D00DD
:105BDC00AF510D009B510D00C3510D007B510D00B9
:105BEC007F510D00000000000000000035530D0037
:105BFC002B530D0021530D0017530D000B530D00AB
:105C0C00FF520D00F3520D00EB520D00E1520D004E
:105C1C00D7520D0035550D000000000000000000AB
:105C2C00AF540D00A5540D009B540D0051540D00A4
:105C3C008F540D0083540D0077540D006F540D00DC
:105C4C0065540D005B540D0035550D00000000002F
:105C5C0000000000CD540D00D7540D00E1540D0090
:105C6C00EB540D00F5540D0001550D000D550D00B4
:105C7C0019550D0021550D002B550D0035550D00F6
:105C8C000000000000000000000000000000000008
:105C9C0000000000000000000000000000000000F8
:105CAC0000000000000000000000000000000000E8
:105CBC0000000000000000000000000000000000D8
:105CCC0000000000000000000000000000000000C8
:105CDC0000000000000000000000000000000000B8
:105CEC004300000089410D0029450D005D450D0064
:105CFC0029470D0071480D0081480D00D9480D0051
:105D0C0001540D00B9540D0001560D0029560D001B
:105D1C00AD560D0071570D0035580D0000000000F8
:045D2C000000000073
:045D3000000000006F
:105D340038453646443330342D423930442D3937D2
:105D440032362D464133382D3145394433363436D5
:105D5400423731332C38453646443330342D3235CE
:105D640042332D363035362D333036392D394234E1
:105D74003143383139383142452C3845364644337D
:105D840030342D323542332D434542432D31423791
:105D9400452D3434344236394134413932432C3878
:105DA400453646443330342D323542332D43454253
:105DB400432D373045412D38323342393138303470
:105DC4004444412C312C312C30303A32353A313084
:105DD4002C34362C322E33392C32302E39362C32A8
:105DE40000000000565B0D00000000008C5C0D00FC
:105DF400AC5C0D00CC5C0D00000000000000000055
:105E04000000000000000000EC5C0D000000000039
:105E1400000000000000000000000000000000007E
:105E2400000000000000000000000000000000006E
:105E3400000000000000000000000000000000005E
:0C5E440000000000000000008CE30320C0
:105E5000FFFFFFFF00000102030405060708090A0F
:105E60000B0C0D0E0F101112131415161718191A0A
:085E70001B1C1D1E1F20280051
:045E78007856341212
:04000003D000401CCD
:00000001FF
